{
  "contractName": "UserManagement",
  "abi": [
    {
      "anonymous": false,
      "inputs": [
        {
          "indexed": false,
          "internalType": "string",
          "name": "flatNo",
          "type": "string"
        },
        {
          "indexed": false,
          "internalType": "bool",
          "name": "isOccupied",
          "type": "bool"
        },
        {
          "indexed": false,
          "internalType": "uint256",
          "name": "timestamp",
          "type": "uint256"
        }
      ],
      "name": "FlatStatusChanged",
      "type": "event"
    },
    {
      "anonymous": false,
      "inputs": [
        {
          "indexed": true,
          "internalType": "address",
          "name": "userAddress",
          "type": "address"
        },
        {
          "indexed": false,
          "internalType": "string",
          "name": "name",
          "type": "string"
        },
        {
          "indexed": false,
          "internalType": "string",
          "name": "flatNo",
          "type": "string"
        },
        {
          "indexed": false,
          "internalType": "uint256",
          "name": "timestamp",
          "type": "uint256"
        }
      ],
      "name": "UserRegistered",
      "type": "event"
    },
    {
      "inputs": [
        {
          "internalType": "string",
          "name": "",
          "type": "string"
        }
      ],
      "name": "flatOccupied",
      "outputs": [
        {
          "internalType": "bool",
          "name": "",
          "type": "bool"
        }
      ],
      "stateMutability": "view",
      "type": "function"
    },
    {
      "inputs": [
        {
          "internalType": "uint256",
          "name": "",
          "type": "uint256"
        }
      ],
      "name": "userAddresses",
      "outputs": [
        {
          "internalType": "address",
          "name": "",
          "type": "address"
        }
      ],
      "stateMutability": "view",
      "type": "function"
    },
    {
      "inputs": [
        {
          "internalType": "address",
          "name": "",
          "type": "address"
        },
        {
          "internalType": "uint256",
          "name": "",
          "type": "uint256"
        }
      ],
      "name": "users",
      "outputs": [
        {
          "internalType": "string",
          "name": "name",
          "type": "string"
        },
        {
          "internalType": "string",
          "name": "flatNo",
          "type": "string"
        },
        {
          "internalType": "string",
          "name": "phoneNumber",
          "type": "string"
        },
        {
          "internalType": "string",
          "name": "email",
          "type": "string"
        },
        {
          "internalType": "string",
          "name": "password",
          "type": "string"
        },
        {
          "internalType": "bool",
          "name": "isActive",
          "type": "bool"
        },
        {
          "internalType": "uint256",
          "name": "registrationDate",
          "type": "uint256"
        }
      ],
      "stateMutability": "view",
      "type": "function"
    },
    {
      "inputs": [
        {
          "internalType": "string",
          "name": "_name",
          "type": "string"
        },
        {
          "internalType": "string",
          "name": "_flatNo",
          "type": "string"
        },
        {
          "internalType": "string",
          "name": "_phoneNumber",
          "type": "string"
        },
        {
          "internalType": "string",
          "name": "_email",
          "type": "string"
        },
        {
          "internalType": "string",
          "name": "_password",
          "type": "string"
        }
      ],
      "name": "registerUser",
      "outputs": [],
      "stateMutability": "nonpayable",
      "type": "function"
    },
    {
      "inputs": [],
      "name": "getAllUsers",
      "outputs": [
        {
          "internalType": "address[]",
          "name": "",
          "type": "address[]"
        }
      ],
      "stateMutability": "view",
      "type": "function"
    },
    {
      "inputs": [
        {
          "internalType": "address",
          "name": "_userAddress",
          "type": "address"
        },
        {
          "internalType": "uint256",
          "name": "index",
          "type": "uint256"
        }
      ],
      "name": "getUserDetails",
      "outputs": [
        {
          "internalType": "string",
          "name": "name",
          "type": "string"
        },
        {
          "internalType": "string",
          "name": "flatNo",
          "type": "string"
        },
        {
          "internalType": "string",
          "name": "phoneNumber",
          "type": "string"
        },
        {
          "internalType": "string",
          "name": "email",
          "type": "string"
        }
      ],
      "stateMutability": "view",
      "type": "function"
    },
    {
      "inputs": [
        {
          "internalType": "address",
          "name": "_userAddress",
          "type": "address"
        }
      ],
      "name": "getUserCount",
      "outputs": [
        {
          "internalType": "uint256",
          "name": "",
          "type": "uint256"
        }
      ],
      "stateMutability": "view",
      "type": "function"
    }
  ],
  "bytecode": "0x608060405234801561000f575f80fd5b506117ca8061001d5f395ff3fe608060405234801561000f575f80fd5b506004361061007b575f3560e01c806392968125116100595780639296812514610115578063ac9f0a4014610148578063cc2e835714610164578063e2842d79146101945761007b565b806303e8837c1461007f578063502c9bd5146100af57806354a02f9e146100df575b5f80fd5b61009960048036038101906100949190610cef565b6101b2565b6040516100a69190610d32565b60405180910390f35b6100c960048036038101906100c49190610d75565b6101fa565b6040516100d69190610daf565b60405180910390f35b6100f960048036038101906100f49190610dc8565b610235565b60405161010c9796959493929190610eaa565b60405180910390f35b61012f600480360381019061012a9190610dc8565b610536565b60405161013f9493929190610f3a565b60405180910390f35b610162600480360381019061015d91906110c5565b610900565b005b61017e600480360381019061017991906111c8565b610bc4565b60405161018b919061120f565b60405180910390f35b61019c610bf9565b6040516101a991906112df565b60405180910390f35b5f805f8373ffffffffffffffffffffffffffffffffffffffff1673ffffffffffffffffffffffffffffffffffffffff1681526020019081526020015f20805490509050919050565b60028181548110610209575f80fd5b905f5260205f20015f915054906101000a900473ffffffffffffffffffffffffffffffffffffffff1681565b5f602052815f5260405f20818154811061024d575f80fd5b905f5260205f2090600702015f9150915050805f01805461026d9061132c565b80601f01602080910402602001604051908101604052809291908181526020018280546102999061132c565b80156102e45780601f106102bb576101008083540402835291602001916102e4565b820191905f5260205f20905b8154815290600101906020018083116102c757829003601f168201915b5050505050908060010180546102f99061132c565b80601f01602080910402602001604051908101604052809291908181526020018280546103259061132c565b80156103705780601f1061034757610100808354040283529160200191610370565b820191905f5260205f20905b81548152906001019060200180831161035357829003601f168201915b5050505050908060020180546103859061132c565b80601f01602080910402602001604051908101604052809291908181526020018280546103b19061132c565b80156103fc5780601f106103d3576101008083540402835291602001916103fc565b820191905f5260205f20905b8154815290600101906020018083116103df57829003601f168201915b5050505050908060030180546104119061132c565b80601f016020809104026020016040519081016040528092919081815260200182805461043d9061132c565b80156104885780601f1061045f57610100808354040283529160200191610488565b820191905f5260205f20905b81548152906001019060200180831161046b57829003601f168201915b50505050509080600401805461049d9061132c565b80601f01602080910402602001604051908101604052809291908181526020018280546104c99061132c565b80156105145780601f106104eb57610100808354040283529160200191610514565b820191905f5260205f20905b8154815290600101906020018083116104f757829003601f168201915b505050505090806005015f9054906101000a900460ff16908060060154905087565b6060806060805f805f8873ffffffffffffffffffffffffffffffffffffffff1673ffffffffffffffffffffffffffffffffffffffff1681526020019081526020015f20868154811061058b5761058a61135c565b5b905f5260205f2090600702016040518060e00160405290815f820180546105b19061132c565b80601f01602080910402602001604051908101604052809291908181526020018280546105dd9061132c565b80156106285780601f106105ff57610100808354040283529160200191610628565b820191905f5260205f20905b81548152906001019060200180831161060b57829003601f168201915b505050505081526020016001820180546106419061132c565b80601f016020809104026020016040519081016040528092919081815260200182805461066d9061132c565b80156106b85780601f1061068f576101008083540402835291602001916106b8565b820191905f5260205f20905b81548152906001019060200180831161069b57829003601f168201915b505050505081526020016002820180546106d19061132c565b80601f01602080910402602001604051908101604052809291908181526020018280546106fd9061132c565b80156107485780601f1061071f57610100808354040283529160200191610748565b820191905f5260205f20905b81548152906001019060200180831161072b57829003601f168201915b505050505081526020016003820180546107619061132c565b80601f016020809104026020016040519081016040528092919081815260200182805461078d9061132c565b80156107d85780601f106107af576101008083540402835291602001916107d8565b820191905f5260205f20905b8154815290600101906020018083116107bb57829003601f168201915b505050505081526020016004820180546107f19061132c565b80601f016020809104026020016040519081016040528092919081815260200182805461081d9061132c565b80156108685780601f1061083f57610100808354040283529160200191610868565b820191905f5260205f20905b81548152906001019060200180831161084b57829003601f168201915b50505050508152602001600582015f9054906101000a900460ff1615151515815260200160068201548152505090508060a001516108db576040517f08c379a00000000000000000000000000000000000000000000000000000000081526004016108d2906113d3565b60405180910390fd5b805f015181602001518260400151836060015194509450945094505092959194509250565b600184604051610910919061142b565b90815260200160405180910390205f9054906101000a900460ff161561096b576040517f08c379a00000000000000000000000000000000000000000000000000000000081526004016109629061148b565b60405180910390fd5b5f803373ffffffffffffffffffffffffffffffffffffffff1673ffffffffffffffffffffffffffffffffffffffff1681526020019081526020015f206040518060e0016040528087815260200186815260200185815260200184815260200183815260200160011515815260200142815250908060018154018082558091505060019003905f5260205f2090600702015f909190919091505f820151815f019081610a169190611646565b506020820151816001019081610a2c9190611646565b506040820151816002019081610a429190611646565b506060820151816003019081610a589190611646565b506080820151816004019081610a6e9190611646565b5060a0820151816005015f6101000a81548160ff02191690831515021790555060c08201518160060155505060018085604051610aab919061142b565b90815260200160405180910390205f6101000a81548160ff021916908315150217905550600233908060018154018082558091505060019003905f5260205f20015f9091909190916101000a81548173ffffffffffffffffffffffffffffffffffffffff021916908373ffffffffffffffffffffffffffffffffffffffff1602179055503373ffffffffffffffffffffffffffffffffffffffff167fb43e07573ffd613ee4cb14f22ebd42b902fb524682771d8e82932bd48bcda247868642604051610b7993929190611715565b60405180910390a27fae1e401efb56528fa6a5fe171658eeda1c0d61c0afd7133e7246c21377c6479484600142604051610bb593929190611758565b60405180910390a15050505050565b6001818051602081018201805184825260208301602085012081835280955050505050505f915054906101000a900460ff1681565b60606002805480602002602001604051908101604052809291908181526020018280548015610c7a57602002820191905f5260205f20905b815f9054906101000a900473ffffffffffffffffffffffffffffffffffffffff1673ffffffffffffffffffffffffffffffffffffffff1681526020019060010190808311610c31575b5050505050905090565b5f604051905090565b5f80fd5b5f80fd5b5f73ffffffffffffffffffffffffffffffffffffffff82169050919050565b5f610cbe82610c95565b9050919050565b610cce81610cb4565b8114610cd8575f80fd5b50565b5f81359050610ce981610cc5565b92915050565b5f60208284031215610d0457610d03610c8d565b5b5f610d1184828501610cdb565b91505092915050565b5f819050919050565b610d2c81610d1a565b82525050565b5f602082019050610d455f830184610d23565b92915050565b610d5481610d1a565b8114610d5e575f80fd5b50565b5f81359050610d6f81610d4b565b92915050565b5f60208284031215610d8a57610d89610c8d565b5b5f610d9784828501610d61565b91505092915050565b610da981610cb4565b82525050565b5f602082019050610dc25f830184610da0565b92915050565b5f8060408385031215610dde57610ddd610c8d565b5b5f610deb85828601610cdb565b9250506020610dfc85828601610d61565b9150509250929050565b5f81519050919050565b5f82825260208201905092915050565b5f5b83811015610e3d578082015181840152602081019050610e22565b5f8484015250505050565b5f601f19601f8301169050919050565b5f610e6282610e06565b610e6c8185610e10565b9350610e7c818560208601610e20565b610e8581610e48565b840191505092915050565b5f8115159050919050565b610ea481610e90565b82525050565b5f60e0820190508181035f830152610ec2818a610e58565b90508181036020830152610ed68189610e58565b90508181036040830152610eea8188610e58565b90508181036060830152610efe8187610e58565b90508181036080830152610f128186610e58565b9050610f2160a0830185610e9b565b610f2e60c0830184610d23565b98975050505050505050565b5f6080820190508181035f830152610f528187610e58565b90508181036020830152610f668186610e58565b90508181036040830152610f7a8185610e58565b90508181036060830152610f8e8184610e58565b905095945050505050565b5f80fd5b5f80fd5b7f4e487b71000000000000000000000000000000000000000000000000000000005f52604160045260245ffd5b610fd782610e48565b810181811067ffffffffffffffff82111715610ff657610ff5610fa1565b5b80604052505050565b5f611008610c84565b90506110148282610fce565b919050565b5f67ffffffffffffffff82111561103357611032610fa1565b5b61103c82610e48565b9050602081019050919050565b828183375f83830152505050565b5f61106961106484611019565b610fff565b90508281526020810184848401111561108557611084610f9d565b5b611090848285611049565b509392505050565b5f82601f8301126110ac576110ab610f99565b5b81356110bc848260208601611057565b91505092915050565b5f805f805f60a086880312156110de576110dd610c8d565b5b5f86013567ffffffffffffffff8111156110fb576110fa610c91565b5b61110788828901611098565b955050602086013567ffffffffffffffff81111561112857611127610c91565b5b61113488828901611098565b945050604086013567ffffffffffffffff81111561115557611154610c91565b5b61116188828901611098565b935050606086013567ffffffffffffffff81111561118257611181610c91565b5b61118e88828901611098565b925050608086013567ffffffffffffffff8111156111af576111ae610c91565b5b6111bb88828901611098565b9150509295509295909350565b5f602082840312156111dd576111dc610c8d565b5b5f82013567ffffffffffffffff8111156111fa576111f9610c91565b5b61120684828501611098565b91505092915050565b5f6020820190506112225f830184610e9b565b92915050565b5f81519050919050565b5f82825260208201905092915050565b5f819050602082019050919050565b61125a81610cb4565b82525050565b5f61126b8383611251565b60208301905092915050565b5f602082019050919050565b5f61128d82611228565b6112978185611232565b93506112a283611242565b805f5b838110156112d25781516112b98882611260565b97506112c483611277565b9250506001810190506112a5565b5085935050505092915050565b5f6020820190508181035f8301526112f78184611283565b905092915050565b7f4e487b71000000000000000000000000000000000000000000000000000000005f52602260045260245ffd5b5f600282049050600182168061134357607f821691505b602082108103611356576113556112ff565b5b50919050565b7f4e487b71000000000000000000000000000000000000000000000000000000005f52603260045260245ffd5b7f55736572206e6f7420666f756e64206f7220696e6163746976650000000000005f82015250565b5f6113bd601a83610e10565b91506113c882611389565b602082019050919050565b5f6020820190508181035f8301526113ea816113b1565b9050919050565b5f81905092915050565b5f61140582610e06565b61140f81856113f1565b935061141f818560208601610e20565b80840191505092915050565b5f61143682846113fb565b915081905092915050565b7f466c617420697320616c7265616479206f6363757069656400000000000000005f82015250565b5f611475601883610e10565b915061148082611441565b602082019050919050565b5f6020820190508181035f8301526114a281611469565b9050919050565b5f819050815f5260205f209050919050565b5f6020601f8301049050919050565b5f82821b905092915050565b5f600883026115057fffffffffffffffffffffffffffffffffffffffffffffffffffffffffffffffff826114ca565b61150f86836114ca565b95508019841693508086168417925050509392505050565b5f819050919050565b5f61154a61154561154084610d1a565b611527565b610d1a565b9050919050565b5f819050919050565b61156383611530565b61157761156f82611551565b8484546114d6565b825550505050565b5f90565b61158b61157f565b61159681848461155a565b505050565b5b818110156115b9576115ae5f82611583565b60018101905061159c565b5050565b601f8211156115fe576115cf816114a9565b6115d8846114bb565b810160208510156115e7578190505b6115fb6115f3856114bb565b83018261159b565b50505b505050565b5f82821c905092915050565b5f61161e5f1984600802611603565b1980831691505092915050565b5f611636838361160f565b9150826002028217905092915050565b61164f82610e06565b67ffffffffffffffff81111561166857611667610fa1565b5b611672825461132c565b61167d8282856115bd565b5f60209050601f8311600181146116ae575f841561169c578287015190505b6116a6858261162b565b86555061170d565b601f1984166116bc866114a9565b5f5b828110156116e3578489015182556001820191506020850194506020810190506116be565b8683101561170057848901516116fc601f89168261160f565b8355505b6001600288020188555050505b505050505050565b5f6060820190508181035f83015261172d8186610e58565b905081810360208301526117418185610e58565b90506117506040830184610d23565b949350505050565b5f6060820190508181035f8301526117708186610e58565b905061177f6020830185610e9b565b61178c6040830184610d23565b94935050505056fea26469706673582212205df1f2a3a6822c2b9f5cc51d0924a7d79766640879dd9f4bcc03dd254ece1a4f64736f6c63430008140033",
  "immutableReferences": {},
  "source": "// SPDX-License-Identifier: MIT\r\npragma solidity ^0.8.0;\r\n\r\ncontract UserManagement {\r\n    struct User {\r\n        string name;\r\n        string flatNo;\r\n        string phoneNumber;\r\n        string email;\r\n        string password;\r\n        bool isActive;\r\n        uint256 registrationDate;\r\n    }\r\n    \r\n    mapping(address => User[]) public users;\r\n    mapping(string => bool) public flatOccupied;\r\n    address[] public userAddresses;\r\n    \r\n    event UserRegistered(\r\n        address indexed userAddress,\r\n        string name,\r\n        string flatNo,\r\n        uint256 timestamp\r\n    );\r\n    \r\n    event FlatStatusChanged(\r\n        string flatNo,\r\n        bool isOccupied,\r\n        uint256 timestamp\r\n    );\r\n    \r\n    function registerUser(\r\n        string memory _name,\r\n        string memory _flatNo,\r\n        string memory _phoneNumber,\r\n        string memory _email,\r\n        string memory _password\r\n    ) public {\r\n        require(!flatOccupied[_flatNo], \"Flat is already occupied\");\r\n        \r\n        users[msg.sender].push(User(\r\n            _name,\r\n            _flatNo,\r\n            _phoneNumber,\r\n            _email,\r\n            _password,\r\n            true,\r\n            block.timestamp\r\n        ));\r\n        \r\n        flatOccupied[_flatNo] = true;\r\n        userAddresses.push(msg.sender);\r\n        \r\n        emit UserRegistered(msg.sender, _name, _flatNo, block.timestamp);\r\n        emit FlatStatusChanged(_flatNo, true, block.timestamp);\r\n    }\r\n    \r\n    function getAllUsers() public view returns (address[] memory) {\r\n        return userAddresses;\r\n    }\r\n    \r\n    function getUserDetails(address _userAddress, uint256 index) public view returns (\r\n        string memory name,\r\n        string memory flatNo,\r\n        string memory phoneNumber,\r\n        string memory email\r\n    ) {\r\n        User memory user = users[_userAddress][index];\r\n        require(user.isActive, \"User not found or inactive\");\r\n        \r\n        return (\r\n            user.name,\r\n            user.flatNo,\r\n            user.phoneNumber,\r\n            user.email\r\n        );\r\n    }\r\n    \r\n    function getUserCount(address _userAddress) public view returns (uint256) {\r\n        return users[_userAddress].length;\r\n    }\r\n} ",
  "sourcePath": "C:\\Users\\hassa\\OneDrive\\Desktop\\frontend\\swms\\contracts\\UserManagement.sol",
  "compiler": {
    "name": "solc",
    "version": "0.8.20+commit.a1b79de6.Emscripten.clang"
  },
  "schemaVersion": "3.4.16",
  "updatedAt": "2024-11-13T08:53:48.836Z",
  "devdoc": {
    "kind": "dev",
    "methods": {},
    "version": 1
  },
  "userdoc": {
    "kind": "user",
    "methods": {},
    "version": 1
  }
}