{
  "contractName": "UserManagement",
  "abi": [
    {
      "anonymous": false,
      "inputs": [
        {
          "indexed": false,
          "internalType": "string",
          "name": "flatNo",
          "type": "string"
        },
        {
          "indexed": false,
          "internalType": "bool",
          "name": "isOccupied",
          "type": "bool"
        },
        {
          "indexed": false,
          "internalType": "uint256",
          "name": "timestamp",
          "type": "uint256"
        }
      ],
      "name": "FlatStatusChanged",
      "type": "event"
    },
    {
      "anonymous": false,
      "inputs": [
        {
          "indexed": true,
          "internalType": "address",
          "name": "userAddress",
          "type": "address"
        },
        {
          "indexed": false,
          "internalType": "string",
          "name": "name",
          "type": "string"
        },
        {
          "indexed": false,
          "internalType": "string",
          "name": "flatNo",
          "type": "string"
        },
        {
          "indexed": false,
          "internalType": "uint256",
          "name": "timestamp",
          "type": "uint256"
        }
      ],
      "name": "UserRegistered",
      "type": "event"
    },
    {
      "inputs": [
        {
          "internalType": "string",
          "name": "",
          "type": "string"
        }
      ],
      "name": "flatOccupied",
      "outputs": [
        {
          "internalType": "bool",
          "name": "",
          "type": "bool"
        }
      ],
      "stateMutability": "view",
      "type": "function",
      "constant": true
    },
    {
      "inputs": [
        {
          "internalType": "uint256",
          "name": "",
          "type": "uint256"
        }
      ],
      "name": "userAddresses",
      "outputs": [
        {
          "internalType": "address",
          "name": "",
          "type": "address"
        }
      ],
      "stateMutability": "view",
      "type": "function",
      "constant": true
    },
    {
      "inputs": [
        {
          "internalType": "address",
          "name": "",
          "type": "address"
        },
        {
          "internalType": "uint256",
          "name": "",
          "type": "uint256"
        }
      ],
      "name": "users",
      "outputs": [
        {
          "internalType": "string",
          "name": "name",
          "type": "string"
        },
        {
          "internalType": "string",
          "name": "flatNo",
          "type": "string"
        },
        {
          "internalType": "string",
          "name": "phoneNumber",
          "type": "string"
        },
        {
          "internalType": "string",
          "name": "email",
          "type": "string"
        },
        {
          "internalType": "string",
          "name": "password",
          "type": "string"
        },
        {
          "internalType": "bool",
          "name": "isActive",
          "type": "bool"
        },
        {
          "internalType": "uint256",
          "name": "registrationDate",
          "type": "uint256"
        }
      ],
      "stateMutability": "view",
      "type": "function",
      "constant": true
    },
    {
      "inputs": [
        {
          "internalType": "string",
          "name": "_name",
          "type": "string"
        },
        {
          "internalType": "string",
          "name": "_flatNo",
          "type": "string"
        },
        {
          "internalType": "string",
          "name": "_phoneNumber",
          "type": "string"
        },
        {
          "internalType": "string",
          "name": "_email",
          "type": "string"
        },
        {
          "internalType": "string",
          "name": "_password",
          "type": "string"
        }
      ],
      "name": "registerUser",
      "outputs": [],
      "stateMutability": "nonpayable",
      "type": "function"
    },
    {
      "inputs": [],
      "name": "getAllUsers",
      "outputs": [
        {
          "internalType": "address[]",
          "name": "",
          "type": "address[]"
        }
      ],
      "stateMutability": "view",
      "type": "function",
      "constant": true
    },
    {
      "inputs": [
        {
          "internalType": "address",
          "name": "_userAddress",
          "type": "address"
        },
        {
          "internalType": "uint256",
          "name": "index",
          "type": "uint256"
        }
      ],
      "name": "getUserDetails",
      "outputs": [
        {
          "internalType": "string",
          "name": "name",
          "type": "string"
        },
        {
          "internalType": "string",
          "name": "flatNo",
          "type": "string"
        },
        {
          "internalType": "string",
          "name": "phoneNumber",
          "type": "string"
        },
        {
          "internalType": "string",
          "name": "email",
          "type": "string"
        }
      ],
      "stateMutability": "view",
      "type": "function",
      "constant": true
    },
    {
      "inputs": [
        {
          "internalType": "address",
          "name": "_userAddress",
          "type": "address"
        }
      ],
      "name": "getUserCount",
      "outputs": [
        {
          "internalType": "uint256",
          "name": "",
          "type": "uint256"
        }
      ],
      "stateMutability": "view",
      "type": "function",
      "constant": true
    }
  ],
  "bytecode": "0x608060405234801561001057600080fd5b50611869806100206000396000f3fe608060405234801561001057600080fd5b506004361061007d5760003560e01c8063929681251161005b5780639296812514610118578063ac9f0a401461014b578063cc2e835714610167578063e2842d79146101975761007d565b806303e8837c14610082578063502c9bd5146100b257806354a02f9e146100e2575b600080fd5b61009c60048036038101906100979190610d36565b6101b5565b6040516100a99190610d7c565b60405180910390f35b6100cc60048036038101906100c79190610dc3565b610200565b6040516100d99190610dff565b60405180910390f35b6100fc60048036038101906100f79190610e1a565b61023f565b60405161010f9796959493929190610f05565b60405180910390f35b610132600480360381019061012d9190610e1a565b610553565b6040516101429493929190610f97565b60405180910390f35b6101656004803603810190610160919061112d565b61092f565b005b610181600480360381019061017c9190611234565b610c00565b60405161018e919061127d565b60405180910390f35b61019f610c36565b6040516101ac9190611356565b60405180910390f35b60008060008373ffffffffffffffffffffffffffffffffffffffff1673ffffffffffffffffffffffffffffffffffffffff168152602001908152602001600020805490509050919050565b6002818154811061021057600080fd5b906000526020600020016000915054906101000a900473ffffffffffffffffffffffffffffffffffffffff1681565b6000602052816000526040600020818154811061025b57600080fd5b90600052602060002090600702016000915091505080600001805461027f906113a7565b80601f01602080910402602001604051908101604052809291908181526020018280546102ab906113a7565b80156102f85780601f106102cd576101008083540402835291602001916102f8565b820191906000526020600020905b8154815290600101906020018083116102db57829003601f168201915b50505050509080600101805461030d906113a7565b80601f0160208091040260200160405190810160405280929190818152602001828054610339906113a7565b80156103865780601f1061035b57610100808354040283529160200191610386565b820191906000526020600020905b81548152906001019060200180831161036957829003601f168201915b50505050509080600201805461039b906113a7565b80601f01602080910402602001604051908101604052809291908181526020018280546103c7906113a7565b80156104145780601f106103e957610100808354040283529160200191610414565b820191906000526020600020905b8154815290600101906020018083116103f757829003601f168201915b505050505090806003018054610429906113a7565b80601f0160208091040260200160405190810160405280929190818152602001828054610455906113a7565b80156104a25780601f10610477576101008083540402835291602001916104a2565b820191906000526020600020905b81548152906001019060200180831161048557829003601f168201915b5050505050908060040180546104b7906113a7565b80601f01602080910402602001604051908101604052809291908181526020018280546104e3906113a7565b80156105305780601f1061050557610100808354040283529160200191610530565b820191906000526020600020905b81548152906001019060200180831161051357829003601f168201915b5050505050908060050160009054906101000a900460ff16908060060154905087565b60608060608060008060008873ffffffffffffffffffffffffffffffffffffffff1673ffffffffffffffffffffffffffffffffffffffff16815260200190815260200160002086815481106105ab576105aa6113d8565b5b90600052602060002090600702016040518060e00160405290816000820180546105d4906113a7565b80601f0160208091040260200160405190810160405280929190818152602001828054610600906113a7565b801561064d5780601f106106225761010080835404028352916020019161064d565b820191906000526020600020905b81548152906001019060200180831161063057829003601f168201915b50505050508152602001600182018054610666906113a7565b80601f0160208091040260200160405190810160405280929190818152602001828054610692906113a7565b80156106df5780601f106106b4576101008083540402835291602001916106df565b820191906000526020600020905b8154815290600101906020018083116106c257829003601f168201915b505050505081526020016002820180546106f8906113a7565b80601f0160208091040260200160405190810160405280929190818152602001828054610724906113a7565b80156107715780601f1061074657610100808354040283529160200191610771565b820191906000526020600020905b81548152906001019060200180831161075457829003601f168201915b5050505050815260200160038201805461078a906113a7565b80601f01602080910402602001604051908101604052809291908181526020018280546107b6906113a7565b80156108035780601f106107d857610100808354040283529160200191610803565b820191906000526020600020905b8154815290600101906020018083116107e657829003601f168201915b5050505050815260200160048201805461081c906113a7565b80601f0160208091040260200160405190810160405280929190818152602001828054610848906113a7565b80156108955780601f1061086a57610100808354040283529160200191610895565b820191906000526020600020905b81548152906001019060200180831161087857829003601f168201915b505050505081526020016005820160009054906101000a900460ff1615151515815260200160068201548152505090508060a00151610909576040517f08c379a000000000000000000000000000000000000000000000000000000000815260040161090090611453565b60405180910390fd5b806000015181602001518260400151836060015194509450945094505092959194509250565b60018460405161093f91906114af565b908152602001604051809103902060009054906101000a900460ff161561099b576040517f08c379a000000000000000000000000000000000000000000000000000000000815260040161099290611512565b60405180910390fd5b6000803373ffffffffffffffffffffffffffffffffffffffff1673ffffffffffffffffffffffffffffffffffffffff1681526020019081526020016000206040518060e001604052808781526020018681526020018581526020018481526020018381526020016001151581526020014281525090806001815401808255809150506001900390600052602060002090600702016000909190919091506000820151816000019081610a4d91906116de565b506020820151816001019081610a6391906116de565b506040820151816002019081610a7991906116de565b506060820151816003019081610a8f91906116de565b506080820151816004019081610aa591906116de565b5060a08201518160050160006101000a81548160ff02191690831515021790555060c08201518160060155505060018085604051610ae391906114af565b908152602001604051809103902060006101000a81548160ff0219169083151502179055506002339080600181540180825580915050600190039060005260206000200160009091909190916101000a81548173ffffffffffffffffffffffffffffffffffffffff021916908373ffffffffffffffffffffffffffffffffffffffff1602179055503373ffffffffffffffffffffffffffffffffffffffff167fb43e07573ffd613ee4cb14f22ebd42b902fb524682771d8e82932bd48bcda247868642604051610bb5939291906117b0565b60405180910390a27fae1e401efb56528fa6a5fe171658eeda1c0d61c0afd7133e7246c21377c6479484600142604051610bf1939291906117f5565b60405180910390a15050505050565b6001818051602081018201805184825260208301602085012081835280955050505050506000915054906101000a900460ff1681565b60606002805480602002602001604051908101604052809291908181526020018280548015610cba57602002820191906000526020600020905b8160009054906101000a900473ffffffffffffffffffffffffffffffffffffffff1673ffffffffffffffffffffffffffffffffffffffff1681526020019060010190808311610c70575b5050505050905090565b6000604051905090565b600080fd5b600080fd5b600073ffffffffffffffffffffffffffffffffffffffff82169050919050565b6000610d0382610cd8565b9050919050565b610d1381610cf8565b8114610d1e57600080fd5b50565b600081359050610d3081610d0a565b92915050565b600060208284031215610d4c57610d4b610cce565b5b6000610d5a84828501610d21565b91505092915050565b6000819050919050565b610d7681610d63565b82525050565b6000602082019050610d916000830184610d6d565b92915050565b610da081610d63565b8114610dab57600080fd5b50565b600081359050610dbd81610d97565b92915050565b600060208284031215610dd957610dd8610cce565b5b6000610de784828501610dae565b91505092915050565b610df981610cf8565b82525050565b6000602082019050610e146000830184610df0565b92915050565b60008060408385031215610e3157610e30610cce565b5b6000610e3f85828601610d21565b9250506020610e5085828601610dae565b9150509250929050565b600081519050919050565b600082825260208201905092915050565b60005b83811015610e94578082015181840152602081019050610e79565b60008484015250505050565b6000601f19601f8301169050919050565b6000610ebc82610e5a565b610ec68185610e65565b9350610ed6818560208601610e76565b610edf81610ea0565b840191505092915050565b60008115159050919050565b610eff81610eea565b82525050565b600060e0820190508181036000830152610f1f818a610eb1565b90508181036020830152610f338189610eb1565b90508181036040830152610f478188610eb1565b90508181036060830152610f5b8187610eb1565b90508181036080830152610f6f8186610eb1565b9050610f7e60a0830185610ef6565b610f8b60c0830184610d6d565b98975050505050505050565b60006080820190508181036000830152610fb18187610eb1565b90508181036020830152610fc58186610eb1565b90508181036040830152610fd98185610eb1565b90508181036060830152610fed8184610eb1565b905095945050505050565b600080fd5b600080fd5b7f4e487b7100000000000000000000000000000000000000000000000000000000600052604160045260246000fd5b61103a82610ea0565b810181811067ffffffffffffffff8211171561105957611058611002565b5b80604052505050565b600061106c610cc4565b90506110788282611031565b919050565b600067ffffffffffffffff82111561109857611097611002565b5b6110a182610ea0565b9050602081019050919050565b82818337600083830152505050565b60006110d06110cb8461107d565b611062565b9050828152602081018484840111156110ec576110eb610ffd565b5b6110f78482856110ae565b509392505050565b600082601f83011261111457611113610ff8565b5b81356111248482602086016110bd565b91505092915050565b600080600080600060a0868803121561114957611148610cce565b5b600086013567ffffffffffffffff81111561116757611166610cd3565b5b611173888289016110ff565b955050602086013567ffffffffffffffff81111561119457611193610cd3565b5b6111a0888289016110ff565b945050604086013567ffffffffffffffff8111156111c1576111c0610cd3565b5b6111cd888289016110ff565b935050606086013567ffffffffffffffff8111156111ee576111ed610cd3565b5b6111fa888289016110ff565b925050608086013567ffffffffffffffff81111561121b5761121a610cd3565b5b611227888289016110ff565b9150509295509295909350565b60006020828403121561124a57611249610cce565b5b600082013567ffffffffffffffff81111561126857611267610cd3565b5b611274848285016110ff565b91505092915050565b60006020820190506112926000830184610ef6565b92915050565b600081519050919050565b600082825260208201905092915050565b6000819050602082019050919050565b6112cd81610cf8565b82525050565b60006112df83836112c4565b60208301905092915050565b6000602082019050919050565b600061130382611298565b61130d81856112a3565b9350611318836112b4565b8060005b8381101561134957815161133088826112d3565b975061133b836112eb565b92505060018101905061131c565b5085935050505092915050565b6000602082019050818103600083015261137081846112f8565b905092915050565b7f4e487b7100000000000000000000000000000000000000000000000000000000600052602260045260246000fd5b600060028204905060018216806113bf57607f821691505b6020821081036113d2576113d1611378565b5b50919050565b7f4e487b7100000000000000000000000000000000000000000000000000000000600052603260045260246000fd5b7f55736572206e6f7420666f756e64206f7220696e616374697665000000000000600082015250565b600061143d601a83610e65565b915061144882611407565b602082019050919050565b6000602082019050818103600083015261146c81611430565b9050919050565b600081905092915050565b600061148982610e5a565b6114938185611473565b93506114a3818560208601610e76565b80840191505092915050565b60006114bb828461147e565b915081905092915050565b7f466c617420697320616c7265616479206f636375706965640000000000000000600082015250565b60006114fc601883610e65565b9150611507826114c6565b602082019050919050565b6000602082019050818103600083015261152b816114ef565b9050919050565b60008190508160005260206000209050919050565b60006020601f8301049050919050565b600082821b905092915050565b6000600883026115947fffffffffffffffffffffffffffffffffffffffffffffffffffffffffffffffff82611557565b61159e8683611557565b95508019841693508086168417925050509392505050565b6000819050919050565b60006115db6115d66115d184610d63565b6115b6565b610d63565b9050919050565b6000819050919050565b6115f5836115c0565b611609611601826115e2565b848454611564565b825550505050565b600090565b61161e611611565b6116298184846115ec565b505050565b5b8181101561164d57611642600082611616565b60018101905061162f565b5050565b601f8211156116925761166381611532565b61166c84611547565b8101602085101561167b578190505b61168f61168785611547565b83018261162e565b50505b505050565b600082821c905092915050565b60006116b560001984600802611697565b1980831691505092915050565b60006116ce83836116a4565b9150826002028217905092915050565b6116e782610e5a565b67ffffffffffffffff811115611700576116ff611002565b5b61170a82546113a7565b611715828285611651565b600060209050601f8311600181146117485760008415611736578287015190505b61174085826116c2565b8655506117a8565b601f19841661175686611532565b60005b8281101561177e57848901518255600182019150602085019450602081019050611759565b8683101561179b5784890151611797601f8916826116a4565b8355505b6001600288020188555050505b505050505050565b600060608201905081810360008301526117ca8186610eb1565b905081810360208301526117de8185610eb1565b90506117ed6040830184610d6d565b949350505050565b6000606082019050818103600083015261180f8186610eb1565b905061181e6020830185610ef6565b61182b6040830184610d6d565b94935050505056fea2646970667358221220975d979d253e723db728d6fb68a6378df06c6bf0ded0edd6d964da857c7d541464736f6c63430008130033",
  "immutableReferences": {},
  "source": "// SPDX-License-Identifier: MIT\r\npragma solidity ^0.8.0;\r\n\r\ncontract UserManagement {\r\n    struct User {\r\n        string name;\r\n        string flatNo;\r\n        string phoneNumber;\r\n        string email;\r\n        string password;\r\n        bool isActive;\r\n        uint256 registrationDate;\r\n    }\r\n    \r\n    mapping(address => User[]) public users;\r\n    mapping(string => bool) public flatOccupied;\r\n    address[] public userAddresses;\r\n    \r\n    event UserRegistered(\r\n        address indexed userAddress,\r\n        string name,\r\n        string flatNo,\r\n        uint256 timestamp\r\n    );\r\n    \r\n    event FlatStatusChanged(\r\n        string flatNo,\r\n        bool isOccupied,\r\n        uint256 timestamp\r\n    );\r\n    \r\n    function registerUser(\r\n        string memory _name,\r\n        string memory _flatNo,\r\n        string memory _phoneNumber,\r\n        string memory _email,\r\n        string memory _password\r\n    ) public {\r\n        require(!flatOccupied[_flatNo], \"Flat is already occupied\");\r\n        \r\n        users[msg.sender].push(User(\r\n            _name,\r\n            _flatNo,\r\n            _phoneNumber,\r\n            _email,\r\n            _password,\r\n            true,\r\n            block.timestamp\r\n        ));\r\n        \r\n        flatOccupied[_flatNo] = true;\r\n        userAddresses.push(msg.sender);\r\n        \r\n        emit UserRegistered(msg.sender, _name, _flatNo, block.timestamp);\r\n        emit FlatStatusChanged(_flatNo, true, block.timestamp);\r\n    }\r\n    \r\n    function getAllUsers() public view returns (address[] memory) {\r\n        return userAddresses;\r\n    }\r\n    \r\n    function getUserDetails(address _userAddress, uint256 index) public view returns (\r\n        string memory name,\r\n        string memory flatNo,\r\n        string memory phoneNumber,\r\n        string memory email\r\n    ) {\r\n        User memory user = users[_userAddress][index];\r\n        require(user.isActive, \"User not found or inactive\");\r\n        \r\n        return (\r\n            user.name,\r\n            user.flatNo,\r\n            user.phoneNumber,\r\n            user.email\r\n        );\r\n    }\r\n    \r\n    function getUserCount(address _userAddress) public view returns (uint256) {\r\n        return users[_userAddress].length;\r\n    }\r\n} ",
  "sourcePath": "C:\\Users\\hassa\\OneDrive\\Desktop\\frontend\\swms\\contracts\\UserManagement.sol",
  "compiler": {
    "name": "solc",
    "version": "0.8.19+commit.7dd6d404.Emscripten.clang"
  },
  "schemaVersion": "3.4.16",
  "updatedAt": "2024-11-11T08:59:49.330Z",
  "networkType": "ethereum",
  "devdoc": {
    "kind": "dev",
    "methods": {},
    "version": 1
  },
  "userdoc": {
    "kind": "user",
    "methods": {},
    "version": 1
  }
}