{
  "contractName": "WaterTokenAllocator",
  "abi": [
    {
      "inputs": [
        {
          "internalType": "address",
          "name": "_waterTokenAddress",
          "type": "address"
        }
      ],
      "stateMutability": "nonpayable",
      "type": "constructor"
    },
    {
      "inputs": [
        {
          "internalType": "address",
          "name": "owner",
          "type": "address"
        }
      ],
      "name": "OwnableInvalidOwner",
      "type": "error"
    },
    {
      "inputs": [
        {
          "internalType": "address",
          "name": "account",
          "type": "address"
        }
      ],
      "name": "OwnableUnauthorizedAccount",
      "type": "error"
    },
    {
      "anonymous": false,
      "inputs": [
        {
          "indexed": true,
          "internalType": "address",
          "name": "previousOwner",
          "type": "address"
        },
        {
          "indexed": true,
          "internalType": "address",
          "name": "newOwner",
          "type": "address"
        }
      ],
      "name": "OwnershipTransferred",
      "type": "event"
    },
    {
      "anonymous": false,
      "inputs": [
        {
          "indexed": true,
          "internalType": "address",
          "name": "user",
          "type": "address"
        },
        {
          "indexed": false,
          "internalType": "uint256",
          "name": "amount",
          "type": "uint256"
        }
      ],
      "name": "TokensAllocated",
      "type": "event"
    },
    {
      "inputs": [
        {
          "internalType": "address",
          "name": "",
          "type": "address"
        }
      ],
      "name": "lastAllocationTimestamp",
      "outputs": [
        {
          "internalType": "uint256",
          "name": "",
          "type": "uint256"
        }
      ],
      "stateMutability": "view",
      "type": "function"
    },
    {
      "inputs": [
        {
          "internalType": "address",
          "name": "",
          "type": "address"
        }
      ],
      "name": "monthlyAllocations",
      "outputs": [
        {
          "internalType": "uint256",
          "name": "",
          "type": "uint256"
        }
      ],
      "stateMutability": "view",
      "type": "function"
    },
    {
      "inputs": [],
      "name": "owner",
      "outputs": [
        {
          "internalType": "address",
          "name": "",
          "type": "address"
        }
      ],
      "stateMutability": "view",
      "type": "function"
    },
    {
      "inputs": [],
      "name": "renounceOwnership",
      "outputs": [],
      "stateMutability": "nonpayable",
      "type": "function"
    },
    {
      "inputs": [
        {
          "internalType": "address",
          "name": "newOwner",
          "type": "address"
        }
      ],
      "name": "transferOwnership",
      "outputs": [],
      "stateMutability": "nonpayable",
      "type": "function"
    },
    {
      "inputs": [],
      "name": "waterToken",
      "outputs": [
        {
          "internalType": "contract WaterToken",
          "name": "",
          "type": "address"
        }
      ],
      "stateMutability": "view",
      "type": "function"
    },
    {
      "inputs": [
        {
          "internalType": "address[]",
          "name": "users",
          "type": "address[]"
        },
        {
          "internalType": "uint256[]",
          "name": "averageConsumption",
          "type": "uint256[]"
        }
      ],
      "name": "allocateTokens",
      "outputs": [],
      "stateMutability": "nonpayable",
      "type": "function"
    },
    {
      "inputs": [
        {
          "internalType": "address",
          "name": "user",
          "type": "address"
        }
      ],
      "name": "getUserAllocation",
      "outputs": [
        {
          "internalType": "uint256",
          "name": "",
          "type": "uint256"
        }
      ],
      "stateMutability": "view",
      "type": "function"
    },
    {
      "inputs": [
        {
          "internalType": "uint256",
          "name": "amount",
          "type": "uint256"
        }
      ],
      "name": "fundAllocator",
      "outputs": [],
      "stateMutability": "nonpayable",
      "type": "function"
    }
  ],
  "bytecode": "0x608060405234801562000010575f80fd5b506040516200132938038062001329833981810160405281019062000036919062000229565b335f73ffffffffffffffffffffffffffffffffffffffff168173ffffffffffffffffffffffffffffffffffffffff1603620000aa575f6040517f1e4fbdf7000000000000000000000000000000000000000000000000000000008152600401620000a191906200026a565b60405180910390fd5b620000bb816200010360201b60201c565b508060015f6101000a81548173ffffffffffffffffffffffffffffffffffffffff021916908373ffffffffffffffffffffffffffffffffffffffff1602179055505062000285565b5f805f9054906101000a900473ffffffffffffffffffffffffffffffffffffffff169050815f806101000a81548173ffffffffffffffffffffffffffffffffffffffff021916908373ffffffffffffffffffffffffffffffffffffffff1602179055508173ffffffffffffffffffffffffffffffffffffffff168173ffffffffffffffffffffffffffffffffffffffff167f8be0079c531659141344cd1fd0a4f28419497f9722a3daafe3b4186f6b6457e060405160405180910390a35050565b5f80fd5b5f73ffffffffffffffffffffffffffffffffffffffff82169050919050565b5f620001f382620001c8565b9050919050565b6200020581620001e7565b811462000210575f80fd5b50565b5f815190506200022381620001fa565b92915050565b5f60208284031215620002415762000240620001c4565b5b5f620002508482850162000213565b91505092915050565b6200026481620001e7565b82525050565b5f6020820190506200027f5f83018462000259565b92915050565b61109680620002935f395ff3fe608060405234801561000f575f80fd5b5060043610610091575f3560e01c80638da5cb5b116100645780638da5cb5b14610109578063a57418f414610127578063a7368afb14610157578063b920ade214610173578063f2fde38b146101a357610091565b8063413939de1461009557806343f2018a146100b15780636ed059ff146100e1578063715018a6146100ff575b5f80fd5b6100af60048036038101906100aa91906108d9565b6101bf565b005b6100cb60048036038101906100c6919061095e565b6102a7565b6040516100d89190610998565b60405180910390f35b6100e96102bc565b6040516100f69190610a0c565b60405180910390f35b6101076102e1565b005b6101116102f4565b60405161011e9190610a34565b60405180910390f35b610141600480360381019061013c919061095e565b61031b565b60405161014e9190610998565b60405180910390f35b610171600480360381019061016c9190610c5d565b610330565b005b61018d6004803603810190610188919061095e565b61067c565b60405161019a9190610998565b60405180910390f35b6101bd60048036038101906101b8919061095e565b6106c2565b005b6101c7610746565b60015f9054906101000a900473ffffffffffffffffffffffffffffffffffffffff1673ffffffffffffffffffffffffffffffffffffffff166323b872dd3330846040518463ffffffff1660e01b815260040161022593929190610cd3565b6020604051808303815f875af1158015610241573d5f803e3d5ffd5b505050506040513d601f19601f820116820180604052508101906102659190610d3d565b6102a4576040517f08c379a000000000000000000000000000000000000000000000000000000000815260040161029b90610dc2565b60405180910390fd5b50565b6003602052805f5260405f205f915090505481565b60015f9054906101000a900473ffffffffffffffffffffffffffffffffffffffff1681565b6102e9610746565b6102f25f6107cd565b565b5f805f9054906101000a900473ffffffffffffffffffffffffffffffffffffffff16905090565b6002602052805f5260405f205f915090505481565b610338610746565b805182511461037c576040517f08c379a000000000000000000000000000000000000000000000000000000000815260040161037390610e50565b60405180910390fd5b5f5b8251811015610677575f603283838151811061039d5761039c610e6e565b5b60200260200101516103af9190610ef5565b90508060025f8685815181106103c8576103c7610e6e565b5b602002602001015173ffffffffffffffffffffffffffffffffffffffff1673ffffffffffffffffffffffffffffffffffffffff1681526020019081526020015f20819055504260035f86858151811061042457610423610e6e565b5b602002602001015173ffffffffffffffffffffffffffffffffffffffff1673ffffffffffffffffffffffffffffffffffffffff1681526020019081526020015f20819055508060015f9054906101000a900473ffffffffffffffffffffffffffffffffffffffff1673ffffffffffffffffffffffffffffffffffffffff166370a08231306040518263ffffffff1660e01b81526004016104c49190610a34565b602060405180830381865afa1580156104df573d5f803e3d5ffd5b505050506040513d601f19601f820116820180604052508101906105039190610f39565b1015610544576040517f08c379a000000000000000000000000000000000000000000000000000000000815260040161053b90610fd4565b60405180910390fd5b60015f9054906101000a900473ffffffffffffffffffffffffffffffffffffffff1673ffffffffffffffffffffffffffffffffffffffff1663a9059cbb85848151811061059457610593610e6e565b5b6020026020010151836040518363ffffffff1660e01b81526004016105ba929190610ff2565b6020604051808303815f875af11580156105d6573d5f803e3d5ffd5b505050506040513d601f19601f820116820180604052508101906105fa9190610d3d565b5083828151811061060e5761060d610e6e565b5b602002602001015173ffffffffffffffffffffffffffffffffffffffff167f3b87361b8a201c697d51aaa7a509f6dfb3870db9e5c5501d22d3e9fae858f7258260405161065b9190610998565b60405180910390a250808061066f90611019565b91505061037e565b505050565b5f60025f8373ffffffffffffffffffffffffffffffffffffffff1673ffffffffffffffffffffffffffffffffffffffff1681526020019081526020015f20549050919050565b6106ca610746565b5f73ffffffffffffffffffffffffffffffffffffffff168173ffffffffffffffffffffffffffffffffffffffff160361073a575f6040517f1e4fbdf70000000000000000000000000000000000000000000000000000000081526004016107319190610a34565b60405180910390fd5b610743816107cd565b50565b61074e61088e565b73ffffffffffffffffffffffffffffffffffffffff1661076c6102f4565b73ffffffffffffffffffffffffffffffffffffffff16146107cb5761078f61088e565b6040517f118cdaa70000000000000000000000000000000000000000000000000000000081526004016107c29190610a34565b60405180910390fd5b565b5f805f9054906101000a900473ffffffffffffffffffffffffffffffffffffffff169050815f806101000a81548173ffffffffffffffffffffffffffffffffffffffff021916908373ffffffffffffffffffffffffffffffffffffffff1602179055508173ffffffffffffffffffffffffffffffffffffffff168173ffffffffffffffffffffffffffffffffffffffff167f8be0079c531659141344cd1fd0a4f28419497f9722a3daafe3b4186f6b6457e060405160405180910390a35050565b5f33905090565b5f604051905090565b5f80fd5b5f80fd5b5f819050919050565b6108b8816108a6565b81146108c2575f80fd5b50565b5f813590506108d3816108af565b92915050565b5f602082840312156108ee576108ed61089e565b5b5f6108fb848285016108c5565b91505092915050565b5f73ffffffffffffffffffffffffffffffffffffffff82169050919050565b5f61092d82610904565b9050919050565b61093d81610923565b8114610947575f80fd5b50565b5f8135905061095881610934565b92915050565b5f602082840312156109735761097261089e565b5b5f6109808482850161094a565b91505092915050565b610992816108a6565b82525050565b5f6020820190506109ab5f830184610989565b92915050565b5f819050919050565b5f6109d46109cf6109ca84610904565b6109b1565b610904565b9050919050565b5f6109e5826109ba565b9050919050565b5f6109f6826109db565b9050919050565b610a06816109ec565b82525050565b5f602082019050610a1f5f8301846109fd565b92915050565b610a2e81610923565b82525050565b5f602082019050610a475f830184610a25565b92915050565b5f80fd5b5f601f19601f8301169050919050565b7f4e487b71000000000000000000000000000000000000000000000000000000005f52604160045260245ffd5b610a9782610a51565b810181811067ffffffffffffffff82111715610ab657610ab5610a61565b5b80604052505050565b5f610ac8610895565b9050610ad48282610a8e565b919050565b5f67ffffffffffffffff821115610af357610af2610a61565b5b602082029050602081019050919050565b5f80fd5b5f610b1a610b1584610ad9565b610abf565b90508083825260208201905060208402830185811115610b3d57610b3c610b04565b5b835b81811015610b665780610b52888261094a565b845260208401935050602081019050610b3f565b5050509392505050565b5f82601f830112610b8457610b83610a4d565b5b8135610b94848260208601610b08565b91505092915050565b5f67ffffffffffffffff821115610bb757610bb6610a61565b5b602082029050602081019050919050565b5f610bda610bd584610b9d565b610abf565b90508083825260208201905060208402830185811115610bfd57610bfc610b04565b5b835b81811015610c265780610c1288826108c5565b845260208401935050602081019050610bff565b5050509392505050565b5f82601f830112610c4457610c43610a4d565b5b8135610c54848260208601610bc8565b91505092915050565b5f8060408385031215610c7357610c7261089e565b5b5f83013567ffffffffffffffff811115610c9057610c8f6108a2565b5b610c9c85828601610b70565b925050602083013567ffffffffffffffff811115610cbd57610cbc6108a2565b5b610cc985828601610c30565b9150509250929050565b5f606082019050610ce65f830186610a25565b610cf36020830185610a25565b610d006040830184610989565b949350505050565b5f8115159050919050565b610d1c81610d08565b8114610d26575f80fd5b50565b5f81519050610d3781610d13565b92915050565b5f60208284031215610d5257610d5161089e565b5b5f610d5f84828501610d29565b91505092915050565b5f82825260208201905092915050565b7f5472616e73666572206661696c656400000000000000000000000000000000005f82015250565b5f610dac600f83610d68565b9150610db782610d78565b602082019050919050565b5f6020820190508181035f830152610dd981610da0565b9050919050565b7f557365727320616e6420636f6e73756d7074696f6e20617272617973206d75735f8201527f74206d6174636800000000000000000000000000000000000000000000000000602082015250565b5f610e3a602783610d68565b9150610e4582610de0565b604082019050919050565b5f6020820190508181035f830152610e6781610e2e565b9050919050565b7f4e487b71000000000000000000000000000000000000000000000000000000005f52603260045260245ffd5b7f4e487b71000000000000000000000000000000000000000000000000000000005f52601260045260245ffd5b7f4e487b71000000000000000000000000000000000000000000000000000000005f52601160045260245ffd5b5f610eff826108a6565b9150610f0a836108a6565b925082610f1a57610f19610e9b565b5b828204905092915050565b5f81519050610f33816108af565b92915050565b5f60208284031215610f4e57610f4d61089e565b5b5f610f5b84828501610f25565b91505092915050565b7f4e6f7420656e6f75676820746f6b656e7320696e2074686520616c6c6f6361745f8201527f6f7220636f6e7472616374000000000000000000000000000000000000000000602082015250565b5f610fbe602b83610d68565b9150610fc982610f64565b604082019050919050565b5f6020820190508181035f830152610feb81610fb2565b9050919050565b5f6040820190506110055f830185610a25565b6110126020830184610989565b9392505050565b5f611023826108a6565b91507fffffffffffffffffffffffffffffffffffffffffffffffffffffffffffffffff820361105557611054610ec8565b5b60018201905091905056fea2646970667358221220d0ed23759b451e8ae730c4c780408bcee84b083a1e177f58f3bad410246699dc64736f6c63430008140033",
  "immutableReferences": {},
  "source": "// SPDX-License-Identifier: MIT\npragma solidity ^0.8.0;\n\nimport \"@openzeppelin/contracts/token/ERC20/ERC20.sol\";\nimport \"@openzeppelin/contracts/access/Ownable.sol\";\n\ncontract WaterToken is ERC20, Ownable {\n    constructor() ERC20(\"Water Token\", \"WATER\") Ownable(msg.sender) {\n        _mint(msg.sender, 1000000 * 10 ** decimals()); // Initial supply\n    }\n}\n\ncontract WaterTokenAllocator is Ownable {\n    WaterToken public waterToken;\n    mapping(address => uint256) public monthlyAllocations;\n    mapping(address => uint256) public lastAllocationTimestamp;\n\n    event TokensAllocated(address indexed user, uint256 amount);\n\n    constructor(address _waterTokenAddress) Ownable(msg.sender) {\n        waterToken = WaterToken(_waterTokenAddress);\n    }\n\n    // Function to allocate tokens based on average water consumption\n    function allocateTokens(address[] memory users, uint256[] memory averageConsumption) external onlyOwner {\n        require(users.length == averageConsumption.length, \"Users and consumption arrays must match\");\n\n        for (uint256 i = 0; i < users.length; i++) {\n            uint256 allocation = averageConsumption[i] / 50; // 1 token = 50 liters\n            monthlyAllocations[users[i]] = allocation;\n            lastAllocationTimestamp[users[i]] = block.timestamp;\n\n            // Check if allocator has enough tokens and transfer the allocation\n            require(waterToken.balanceOf(address(this)) >= allocation, \"Not enough tokens in the allocator contract\");\n            waterToken.transfer(users[i], allocation);\n\n            emit TokensAllocated(users[i], allocation);\n        }\n    }\n\n    // Function to get user's allocation\n    function getUserAllocation(address user) external view returns (uint256) {\n        return monthlyAllocations[user];\n    }\n\n    // Function to fund the allocator contract with tokens\n    function fundAllocator(uint256 amount) external onlyOwner {\n        require(waterToken.transferFrom(msg.sender, address(this), amount), \"Transfer failed\");\n    }\n}\n",
  "sourcePath": "C:\\Users\\hassa\\OneDrive\\Desktop\\frontend\\swms\\contracts\\WaterTokenAllocator.sol",
  "compiler": {
    "name": "solc",
    "version": "0.8.20+commit.a1b79de6.Emscripten.clang"
  },
  "schemaVersion": "3.4.16",
  "updatedAt": "2024-11-13T08:53:48.857Z",
  "devdoc": {
    "errors": {
      "OwnableInvalidOwner(address)": [
        {
          "details": "The owner is not a valid owner account. (eg. `address(0)`)"
        }
      ],
      "OwnableUnauthorizedAccount(address)": [
        {
          "details": "The caller account is not authorized to perform an operation."
        }
      ]
    },
    "kind": "dev",
    "methods": {
      "owner()": {
        "details": "Returns the address of the current owner."
      },
      "renounceOwnership()": {
        "details": "Leaves the contract without owner. It will not be possible to call `onlyOwner` functions. Can only be called by the current owner. NOTE: Renouncing ownership will leave the contract without an owner, thereby disabling any functionality that is only available to the owner."
      },
      "transferOwnership(address)": {
        "details": "Transfers ownership of the contract to a new account (`newOwner`). Can only be called by the current owner."
      }
    },
    "version": 1
  },
  "userdoc": {
    "kind": "user",
    "methods": {},
    "version": 1
  }
}